{
  "address": "0xd22b094482d99F68301dA3fD1caFccc5c5E082E0",
  "abi": [
    {
      "inputs": [],
      "stateMutability": "nonpayable",
      "type": "constructor"
    },
    {
      "inputs": [],
      "name": "getMessage",
      "outputs": [
        {
          "internalType": "string",
          "name": "",
          "type": "string"
        }
      ],
      "stateMutability": "view",
      "type": "function"
    },
    {
      "inputs": [],
      "name": "message",
      "outputs": [
        {
          "internalType": "string",
          "name": "",
          "type": "string"
        }
      ],
      "stateMutability": "view",
      "type": "function"
    }
  ],
  "transactionHash": "0x6596e221f8e06382868d7e8b97d6025b8955bbe6cbf32d7c2c193ae01b28cbbb",
  "args": [],
  "numDeployments": 1,
  "solcInputHash": "163c79dfac7bd16c76f8d36f69db58c5",
  "bytecode": "0x608060405234801561001057600080fd5b5060408051808201909152600d81526c48656c6c6f2c20576f726c642160981b602082015260009061004290826100e7565b506101a6565b634e487b7160e01b600052604160045260246000fd5b600181811c9082168061007257607f821691505b60208210810361009257634e487b7160e01b600052602260045260246000fd5b50919050565b601f8211156100e257600081815260208120601f850160051c810160208610156100bf5750805b601f850160051c820191505b818110156100de578281556001016100cb565b5050505b505050565b81516001600160401b0381111561010057610100610048565b6101148161010e845461005e565b84610098565b602080601f83116001811461014957600084156101315750858301515b600019600386901b1c1916600185901b1785556100de565b600085815260208120601f198616915b8281101561017857888601518255948401946001909101908401610159565b50858210156101965787850151600019600388901b60f8161c191681555b5050505050600190811b01905550565b61023f806101b56000396000f3fe608060405234801561001057600080fd5b50600436106100365760003560e01c8063ce6d41de1461003b578063e21f37ce14610059575b600080fd5b610043610061565b6040516100509190610181565b60405180910390f35b6100436100f3565b606060008054610070906101cf565b80601f016020809104026020016040519081016040528092919081815260200182805461009c906101cf565b80156100e95780601f106100be576101008083540402835291602001916100e9565b820191906000526020600020905b8154815290600101906020018083116100cc57829003601f168201915b5050505050905090565b60008054610100906101cf565b80601f016020809104026020016040519081016040528092919081815260200182805461012c906101cf565b80156101795780601f1061014e57610100808354040283529160200191610179565b820191906000526020600020905b81548152906001019060200180831161015c57829003601f168201915b505050505081565b600060208083528351808285015260005b818110156101ae57858101830151858201604001528201610192565b506000604082860101526040601f19601f8301168501019250505092915050565b600181811c908216806101e357607f821691505b60208210810361020357634e487b7160e01b600052602260045260246000fd5b5091905056fea2646970667358221220345ddcdabf9900ea4161c882ef53e1846255b21b7aab77a259951e01467fbe4d64736f6c63430008110033",
  "devdoc": {
    "author": "BuidlGuidl",
    "kind": "dev",
    "methods": {},
    "version": 1
  },
  "userdoc": {
    "kind": "user",
    "methods": {},
    "notice": "A smart contract that allows changing a state variable of the contract and tracking the changes It also allows the owner to withdraw the Ether in the contract",
    "version": 1
  },
  "storageLayout": {
    "storage": [
      {
        "astId": 5,
        "contract": "contracts/YourContract.sol:YourContract",
        "label": "message",
        "offset": 0,
        "slot": "0",
        "type": "t_string_storage"
      }
    ],
    "types": {
      "t_string_storage": {
        "encoding": "bytes",
        "label": "string",
        "numberOfBytes": "32"
      }
    }
  }
}