{
  "address": "0xc8BccbEffD1179A09e01F53b4D9f80928FA268c1",
  "abi": [
    {
      "inputs": [],
      "stateMutability": "nonpayable",
      "type": "constructor"
    },
    {
      "anonymous": false,
      "inputs": [
        {
          "indexed": true,
          "internalType": "address",
          "name": "owner",
          "type": "address"
        },
        {
          "indexed": true,
          "internalType": "address",
          "name": "approved",
          "type": "address"
        },
        {
          "indexed": true,
          "internalType": "uint256",
          "name": "tokenId",
          "type": "uint256"
        }
      ],
      "name": "Approval",
      "type": "event"
    },
    {
      "anonymous": false,
      "inputs": [
        {
          "indexed": true,
          "internalType": "address",
          "name": "owner",
          "type": "address"
        },
        {
          "indexed": true,
          "internalType": "address",
          "name": "operator",
          "type": "address"
        },
        {
          "indexed": false,
          "internalType": "bool",
          "name": "approved",
          "type": "bool"
        }
      ],
      "name": "ApprovalForAll",
      "type": "event"
    },
    {
      "anonymous": false,
      "inputs": [
        {
          "indexed": true,
          "internalType": "uint256",
          "name": "tokenId",
          "type": "uint256"
        },
        {
          "indexed": false,
          "internalType": "address",
          "name": "buyer",
          "type": "address"
        }
      ],
      "name": "NFTBought",
      "type": "event"
    },
    {
      "anonymous": false,
      "inputs": [
        {
          "indexed": true,
          "internalType": "uint256",
          "name": "tokenId",
          "type": "uint256"
        },
        {
          "indexed": false,
          "internalType": "address",
          "name": "seller",
          "type": "address"
        },
        {
          "indexed": false,
          "internalType": "uint256",
          "name": "price",
          "type": "uint256"
        }
      ],
      "name": "NFTListed",
      "type": "event"
    },
    {
      "anonymous": false,
      "inputs": [
        {
          "indexed": true,
          "internalType": "uint256",
          "name": "tokenId",
          "type": "uint256"
        },
        {
          "indexed": false,
          "internalType": "address",
          "name": "seller",
          "type": "address"
        },
        {
          "indexed": false,
          "internalType": "address",
          "name": "buyer",
          "type": "address"
        },
        {
          "indexed": false,
          "internalType": "uint256",
          "name": "price",
          "type": "uint256"
        }
      ],
      "name": "NFTSold",
      "type": "event"
    },
    {
      "anonymous": false,
      "inputs": [
        {
          "indexed": true,
          "internalType": "address",
          "name": "previousOwner",
          "type": "address"
        },
        {
          "indexed": true,
          "internalType": "address",
          "name": "newOwner",
          "type": "address"
        }
      ],
      "name": "OwnershipTransferred",
      "type": "event"
    },
    {
      "anonymous": false,
      "inputs": [
        {
          "indexed": true,
          "internalType": "uint256",
          "name": "tokenId",
          "type": "uint256"
        },
        {
          "indexed": false,
          "internalType": "string",
          "name": "tokenURI",
          "type": "string"
        }
      ],
      "name": "TokenURIUpdated",
      "type": "event"
    },
    {
      "anonymous": false,
      "inputs": [
        {
          "indexed": true,
          "internalType": "address",
          "name": "from",
          "type": "address"
        },
        {
          "indexed": true,
          "internalType": "address",
          "name": "to",
          "type": "address"
        },
        {
          "indexed": true,
          "internalType": "uint256",
          "name": "tokenId",
          "type": "uint256"
        }
      ],
      "name": "Transfer",
      "type": "event"
    },
    {
      "inputs": [
        {
          "internalType": "address",
          "name": "_to",
          "type": "address"
        },
        {
          "internalType": "string",
          "name": "_title",
          "type": "string"
        },
        {
          "internalType": "string",
          "name": "_description",
          "type": "string"
        },
        {
          "internalType": "string",
          "name": "_imageURL",
          "type": "string"
        }
      ],
      "name": "airdropNFT",
      "outputs": [
        {
          "internalType": "uint256",
          "name": "",
          "type": "uint256"
        }
      ],
      "stateMutability": "nonpayable",
      "type": "function"
    },
    {
      "inputs": [
        {
          "internalType": "address",
          "name": "to",
          "type": "address"
        },
        {
          "internalType": "uint256",
          "name": "tokenId",
          "type": "uint256"
        }
      ],
      "name": "approve",
      "outputs": [],
      "stateMutability": "nonpayable",
      "type": "function"
    },
    {
      "inputs": [
        {
          "internalType": "address",
          "name": "owner",
          "type": "address"
        }
      ],
      "name": "balanceOf",
      "outputs": [
        {
          "internalType": "uint256",
          "name": "",
          "type": "uint256"
        }
      ],
      "stateMutability": "view",
      "type": "function"
    },
    {
      "inputs": [
        {
          "internalType": "uint256",
          "name": "_tokenId",
          "type": "uint256"
        }
      ],
      "name": "buyNFT",
      "outputs": [],
      "stateMutability": "payable",
      "type": "function"
    },
    {
      "inputs": [
        {
          "internalType": "uint256",
          "name": "_tokenId",
          "type": "uint256"
        }
      ],
      "name": "displayNFT",
      "outputs": [
        {
          "internalType": "string",
          "name": "",
          "type": "string"
        }
      ],
      "stateMutability": "view",
      "type": "function"
    },
    {
      "inputs": [
        {
          "internalType": "uint256",
          "name": "tokenId",
          "type": "uint256"
        }
      ],
      "name": "getApproved",
      "outputs": [
        {
          "internalType": "address",
          "name": "",
          "type": "address"
        }
      ],
      "stateMutability": "view",
      "type": "function"
    },
    {
      "inputs": [
        {
          "internalType": "address",
          "name": "owner",
          "type": "address"
        },
        {
          "internalType": "address",
          "name": "operator",
          "type": "address"
        }
      ],
      "name": "isApprovedForAll",
      "outputs": [
        {
          "internalType": "bool",
          "name": "",
          "type": "bool"
        }
      ],
      "stateMutability": "view",
      "type": "function"
    },
    {
      "inputs": [],
      "name": "listAllNFTs",
      "outputs": [
        {
          "components": [
            {
              "internalType": "uint256",
              "name": "tokenId",
              "type": "uint256"
            },
            {
              "internalType": "string",
              "name": "title",
              "type": "string"
            },
            {
              "internalType": "string",
              "name": "description",
              "type": "string"
            },
            {
              "internalType": "string",
              "name": "imageURL",
              "type": "string"
            }
          ],
          "internalType": "struct YourContract.NFT[]",
          "name": "",
          "type": "tuple[]"
        }
      ],
      "stateMutability": "view",
      "type": "function"
    },
    {
      "inputs": [
        {
          "internalType": "string",
          "name": "_title",
          "type": "string"
        },
        {
          "internalType": "string",
          "name": "_description",
          "type": "string"
        },
        {
          "internalType": "string",
          "name": "_imageURL",
          "type": "string"
        },
        {
          "internalType": "address",
          "name": "_to",
          "type": "address"
        }
      ],
      "name": "mintNFT",
      "outputs": [
        {
          "internalType": "uint256",
          "name": "",
          "type": "uint256"
        }
      ],
      "stateMutability": "nonpayable",
      "type": "function"
    },
    {
      "inputs": [],
      "name": "name",
      "outputs": [
        {
          "internalType": "string",
          "name": "",
          "type": "string"
        }
      ],
      "stateMutability": "view",
      "type": "function"
    },
    {
      "inputs": [],
      "name": "owner",
      "outputs": [
        {
          "internalType": "address",
          "name": "",
          "type": "address"
        }
      ],
      "stateMutability": "view",
      "type": "function"
    },
    {
      "inputs": [
        {
          "internalType": "uint256",
          "name": "tokenId",
          "type": "uint256"
        }
      ],
      "name": "ownerOf",
      "outputs": [
        {
          "internalType": "address",
          "name": "",
          "type": "address"
        }
      ],
      "stateMutability": "view",
      "type": "function"
    },
    {
      "inputs": [],
      "name": "renounceOwnership",
      "outputs": [],
      "stateMutability": "nonpayable",
      "type": "function"
    },
    {
      "inputs": [
        {
          "internalType": "address",
          "name": "from",
          "type": "address"
        },
        {
          "internalType": "address",
          "name": "to",
          "type": "address"
        },
        {
          "internalType": "uint256",
          "name": "tokenId",
          "type": "uint256"
        }
      ],
      "name": "safeTransferFrom",
      "outputs": [],
      "stateMutability": "nonpayable",
      "type": "function"
    },
    {
      "inputs": [
        {
          "internalType": "address",
          "name": "from",
          "type": "address"
        },
        {
          "internalType": "address",
          "name": "to",
          "type": "address"
        },
        {
          "internalType": "uint256",
          "name": "tokenId",
          "type": "uint256"
        },
        {
          "internalType": "bytes",
          "name": "data",
          "type": "bytes"
        }
      ],
      "name": "safeTransferFrom",
      "outputs": [],
      "stateMutability": "nonpayable",
      "type": "function"
    },
    {
      "inputs": [
        {
          "internalType": "uint256",
          "name": "_tokenId",
          "type": "uint256"
        },
        {
          "internalType": "uint256",
          "name": "_price",
          "type": "uint256"
        }
      ],
      "name": "sellNFT",
      "outputs": [],
      "stateMutability": "nonpayable",
      "type": "function"
    },
    {
      "inputs": [
        {
          "internalType": "address",
          "name": "operator",
          "type": "address"
        },
        {
          "internalType": "bool",
          "name": "approved",
          "type": "bool"
        }
      ],
      "name": "setApprovalForAll",
      "outputs": [],
      "stateMutability": "nonpayable",
      "type": "function"
    },
    {
      "inputs": [
        {
          "internalType": "bytes4",
          "name": "interfaceId",
          "type": "bytes4"
        }
      ],
      "name": "supportsInterface",
      "outputs": [
        {
          "internalType": "bool",
          "name": "",
          "type": "bool"
        }
      ],
      "stateMutability": "view",
      "type": "function"
    },
    {
      "inputs": [],
      "name": "symbol",
      "outputs": [
        {
          "internalType": "string",
          "name": "",
          "type": "string"
        }
      ],
      "stateMutability": "view",
      "type": "function"
    },
    {
      "inputs": [
        {
          "internalType": "uint256",
          "name": "tokenId",
          "type": "uint256"
        }
      ],
      "name": "tokenURI",
      "outputs": [
        {
          "internalType": "string",
          "name": "",
          "type": "string"
        }
      ],
      "stateMutability": "view",
      "type": "function"
    },
    {
      "inputs": [
        {
          "internalType": "address",
          "name": "from",
          "type": "address"
        },
        {
          "internalType": "address",
          "name": "to",
          "type": "address"
        },
        {
          "internalType": "uint256",
          "name": "tokenId",
          "type": "uint256"
        }
      ],
      "name": "transferFrom",
      "outputs": [],
      "stateMutability": "nonpayable",
      "type": "function"
    },
    {
      "inputs": [
        {
          "internalType": "address",
          "name": "newOwner",
          "type": "address"
        }
      ],
      "name": "transferOwnership",
      "outputs": [],
      "stateMutability": "nonpayable",
      "type": "function"
    }
  ],
  "transactionHash": "0xde94f80e9d52d90fe158731cc797e26124cdfcf93f3ea0c9d0ac34aafe5b9d62",
  "args": [],
  "numDeployments": 3,
  "solcInputHash": "1f4dc68307fb80fb1b617438a1fab8f2",
  "bytecode": "0x60806040523480156200001157600080fd5b5060405180604001604052806005815260200164135e53919560da1b815250604051806040016040528060048152602001631353919560e21b81525081600090816200005e91906200018b565b5060016200006d82826200018b565b5050506200008a620000846200009060201b60201c565b62000094565b62000257565b3390565b600680546001600160a01b038381166001600160a01b0319831681179093556040519116919082907f8be0079c531659141344cd1fd0a4f28419497f9722a3daafe3b4186f6b6457e090600090a35050565b634e487b7160e01b600052604160045260246000fd5b600181811c908216806200011157607f821691505b6020821081036200013257634e487b7160e01b600052602260045260246000fd5b50919050565b601f8211156200018657600081815260208120601f850160051c81016020861015620001615750805b601f850160051c820191505b8181101562000182578281556001016200016d565b5050505b505050565b81516001600160401b03811115620001a757620001a7620000e6565b620001bf81620001b88454620000fc565b8462000138565b602080601f831160018114620001f75760008415620001de5750858301515b600019600386901b1c1916600185901b17855562000182565b600085815260208120601f198616915b82811015620002285788860151825594840194600190910190840162000207565b5085821015620002475787850151600019600388901b60f8161c191681555b5050505050600190811b01905550565b61214180620002676000396000f3fe6080604052600436106101355760003560e01c806381ebc2c8116100ab578063a22cb4651161006f578063a22cb46514610356578063b88d4fde14610376578063c694b9f214610396578063c87b56dd146103b6578063e985e9c5146103d6578063f2fde38b146103f657600080fd5b806381ebc2c8146102c15780638a13aece146102e35780638da5cb5b1461030357806391a48a1e1461032157806395d89b411461034157600080fd5b806342842e0e116100fd57806342842e0e1461020b57806351ed82881461022b5780636352211e1461023e5780636b94a0501461025e57806370a082311461028c578063715018a6146102ac57600080fd5b806301ffc9a71461013a57806306fdde031461016f578063081812fc14610191578063095ea7b3146101c957806323b872dd146101eb575b600080fd5b34801561014657600080fd5b5061015a610155366004611915565b610416565b60405190151581526020015b60405180910390f35b34801561017b57600080fd5b50610184610468565b6040516101669190611982565b34801561019d57600080fd5b506101b16101ac366004611995565b6104fa565b6040516001600160a01b039091168152602001610166565b3480156101d557600080fd5b506101e96101e43660046119ca565b610521565b005b3480156101f757600080fd5b506101e96102063660046119f4565b61063b565b34801561021757600080fd5b506101e96102263660046119f4565b61066c565b6101e9610239366004611995565b610687565b34801561024a57600080fd5b506101b1610259366004611995565b6107dd565b34801561026a57600080fd5b5061027e610279366004611adc565b61083d565b604051908152602001610166565b34801561029857600080fd5b5061027e6102a7366004611b75565b61090f565b3480156102b857600080fd5b506101e9610995565b3480156102cd57600080fd5b506102d66109a9565b6040516101669190611b90565b3480156102ef57600080fd5b506101846102fe366004611995565b610c8a565b34801561030f57600080fd5b506006546001600160a01b03166101b1565b34801561032d57600080fd5b506101e961033c366004611c3c565b610d5d565b34801561034d57600080fd5b50610184610e4b565b34801561036257600080fd5b506101e9610371366004611c5e565b610e5a565b34801561038257600080fd5b506101e9610391366004611c9a565b610e69565b3480156103a257600080fd5b5061027e6103b1366004611d0a565b610ea1565b3480156103c257600080fd5b506101846103d1366004611995565b610f67565b3480156103e257600080fd5b5061015a6103f1366004611da3565b610fdb565b34801561040257600080fd5b506101e9610411366004611b75565b611009565b60006001600160e01b031982166380ac58cd60e01b148061044757506001600160e01b03198216635b5e139f60e01b145b8061046257506301ffc9a760e01b6001600160e01b03198316145b92915050565b60606000805461047790611dd6565b80601f01602080910402602001604051908101604052809291908181526020018280546104a390611dd6565b80156104f05780601f106104c5576101008083540402835291602001916104f0565b820191906000526020600020905b8154815290600101906020018083116104d357829003601f168201915b5050505050905090565b600061050582611082565b506000908152600460205260409020546001600160a01b031690565b600061052c826107dd565b9050806001600160a01b0316836001600160a01b03160361059e5760405162461bcd60e51b815260206004820152602160248201527f4552433732313a20617070726f76616c20746f2063757272656e74206f776e656044820152603960f91b60648201526084015b60405180910390fd5b336001600160a01b03821614806105ba57506105ba8133610fdb565b61062c5760405162461bcd60e51b815260206004820152603d60248201527f4552433732313a20617070726f76652063616c6c6572206973206e6f7420746f60448201527f6b656e206f776e6572206f7220617070726f76656420666f7220616c6c0000006064820152608401610595565b61063683836110e1565b505050565b610645338261114f565b6106615760405162461bcd60e51b815260040161059590611e0a565b6106368383836111ad565b61063683838360405180602001604052806000815250610e69565b600081815260086020526040902054819060ff166106b75760405162461bcd60e51b815260040161059590611e57565b60008281526009602052604090205434101561070a5760405162461bcd60e51b8152602060048201526012602482015271496e73756666696369656e742066756e647360701b6044820152606401610595565b6000610715836107dd565b9050336107238282866111ad565b6040516001600160a01b038216815284907fedd9780c911d132891b0d6c68f69e6d9086a0ddc83a683a5e62b5aed36e93eb69060200160405180910390a26000848152600960205260409020543411156107c9576000848152600960205260409020546001600160a01b038216906108fc9061079f9034611e9b565b6040518115909202916000818181858888f193505050501580156107c7573d6000803e3d6000fd5b505b505050600090815260096020526040812055565b6000818152600260205260408120546001600160a01b0316806104625760405162461bcd60e51b8152602060048201526018602482015277115490cdcc8c4e881a5b9d985b1a59081d1bdad95b88125160421b6044820152606401610595565b6000610847611311565b610855600780546001019055565b600061086060075490565b905061086c868261136b565b807f931f495b9a8e5d8e61946ea5d61e021f636cfe213a801f97589c18c152e408bd8460405161089c9190611982565b60405180910390a26000818152600860209081526040808320805460ff19166001179055600a90915290206108d18682611efc565b506000818152600b602052604090206108ea8582611efc565b506000818152600c602052604090206109038482611efc565b5090505b949350505050565b60006001600160a01b0382166109795760405162461bcd60e51b815260206004820152602960248201527f4552433732313a2061646472657373207a65726f206973206e6f7420612076616044820152683634b21037bbb732b960b91b6064820152608401610595565b506001600160a01b031660009081526003602052604090205490565b61099d611311565b6109a76000611385565b565b606060006109b660075490565b67ffffffffffffffff8111156109ce576109ce611a30565b604051908082528060200260200182016040528015610a2a57816020015b610a176040518060800160405280600081526020016060815260200160608152602001606081525090565b8152602001906001900390816109ec5790505b509050600060015b6007548111610c825760008181526008602052604090205460ff1615610c70576040518060800160405280828152602001600a60008481526020019081526020016000208054610a8190611dd6565b80601f0160208091040260200160405190810160405280929190818152602001828054610aad90611dd6565b8015610afa5780601f10610acf57610100808354040283529160200191610afa565b820191906000526020600020905b815481529060010190602001808311610add57829003601f168201915b50505050508152602001600b60008481526020019081526020016000208054610b2290611dd6565b80601f0160208091040260200160405190810160405280929190818152602001828054610b4e90611dd6565b8015610b9b5780601f10610b7057610100808354040283529160200191610b9b565b820191906000526020600020905b815481529060010190602001808311610b7e57829003601f168201915b50505050508152602001600c60008481526020019081526020016000208054610bc390611dd6565b80601f0160208091040260200160405190810160405280929190818152602001828054610bef90611dd6565b8015610c3c5780601f10610c1157610100808354040283529160200191610c3c565b820191906000526020600020905b815481529060010190602001808311610c1f57829003601f168201915b5050505050815250838381518110610c5657610c56611fbc565b60200260200101819052508180610c6c90611fd2565b9250505b80610c7a81611fd2565b915050610a32565b509092915050565b600081815260086020526040902054606090829060ff16610cbd5760405162461bcd60e51b815260040161059590611e57565b6000838152600c602052604090208054610cd690611dd6565b80601f0160208091040260200160405190810160405280929190818152602001828054610d0290611dd6565b8015610d4f5780601f10610d2457610100808354040283529160200191610d4f565b820191906000526020600020905b815481529060010190602001808311610d3257829003601f168201915b505050505091505b50919050565b600082815260086020526040902054829060ff16610d8d5760405162461bcd60e51b815260040161059590611e57565b33610d97846107dd565b6001600160a01b031614610df95760405162461bcd60e51b815260206004820152602360248201527f596f7520617265206e6f7420746865206f776e6572206f66207468697320746f60448201526235b2b760e91b6064820152608401610595565b600083815260096020908152604091829020849055815133815290810184905284917f5f9c03de076f5063cd3ebcfe8ef7aa8af378e4b35a83c77ba9777e97083879a2910160405180910390a2505050565b60606001805461047790611dd6565b610e653383836113d7565b5050565b610e73338361114f565b610e8f5760405162461bcd60e51b815260040161059590611e0a565b610e9b848484846114a5565b50505050565b6000610eab611311565b610eb9600780546001019055565b6000610ec460075490565b9050610ed0838261136b565b807f931f495b9a8e5d8e61946ea5d61e021f636cfe213a801f97589c18c152e408bd85604051610f009190611982565b60405180910390a26000818152600860209081526040808320805460ff19166001179055600a9091529020610f358782611efc565b506000818152600b60205260409020610f4e8682611efc565b506000818152600c602052604090206109038582611efc565b6060610f7282611082565b6000610f8960408051602081019091526000815290565b90506000815111610fa95760405180602001604052806000815250610fd4565b80610fb3846114d8565b604051602001610fc4929190611feb565b6040516020818303038152906040525b9392505050565b6001600160a01b03918216600090815260056020908152604080832093909416825291909152205460ff1690565b611011611311565b6001600160a01b0381166110765760405162461bcd60e51b815260206004820152602660248201527f4f776e61626c653a206e6577206f776e657220697320746865207a65726f206160448201526564647265737360d01b6064820152608401610595565b61107f81611385565b50565b6000818152600260205260409020546001600160a01b031661107f5760405162461bcd60e51b8152602060048201526018602482015277115490cdcc8c4e881a5b9d985b1a59081d1bdad95b88125160421b6044820152606401610595565b600081815260046020526040902080546001600160a01b0319166001600160a01b0384169081179091558190611116826107dd565b6001600160a01b03167f8c5be1e5ebec7d5bd14f71427d1e84f3dd0314c0f7b2291e5b200ac8c7c3b92560405160405180910390a45050565b60008061115b836107dd565b9050806001600160a01b0316846001600160a01b0316148061118257506111828185610fdb565b806109075750836001600160a01b031661119b846104fa565b6001600160a01b031614949350505050565b826001600160a01b03166111c0826107dd565b6001600160a01b0316146111e65760405162461bcd60e51b81526004016105959061201a565b6001600160a01b0382166112485760405162461bcd60e51b8152602060048201526024808201527f4552433732313a207472616e7366657220746f20746865207a65726f206164646044820152637265737360e01b6064820152608401610595565b826001600160a01b031661125b826107dd565b6001600160a01b0316146112815760405162461bcd60e51b81526004016105959061201a565b600081815260046020908152604080832080546001600160a01b03199081169091556001600160a01b0387811680865260038552838620805460001901905590871680865283862080546001019055868652600290945282852080549092168417909155905184937fddf252ad1be2c89b69c2b068fc378daa952ba7f163c4a11628f55a4df523b3ef91a4505050565b6006546001600160a01b031633146109a75760405162461bcd60e51b815260206004820181905260248201527f4f776e61626c653a2063616c6c6572206973206e6f7420746865206f776e65726044820152606401610595565b610e6582826040518060200160405280600081525061156b565b600680546001600160a01b038381166001600160a01b0319831681179093556040519116919082907f8be0079c531659141344cd1fd0a4f28419497f9722a3daafe3b4186f6b6457e090600090a35050565b816001600160a01b0316836001600160a01b0316036114385760405162461bcd60e51b815260206004820152601960248201527f4552433732313a20617070726f766520746f2063616c6c6572000000000000006044820152606401610595565b6001600160a01b03838116600081815260056020908152604080832094871680845294825291829020805460ff191686151590811790915591519182527f17307eab39ab6107e8899845ad3d59bd9653f200f220920489ca2b5937696c31910160405180910390a3505050565b6114b08484846111ad565b6114bc8484848461159e565b610e9b5760405162461bcd60e51b81526004016105959061205f565b606060006114e58361169c565b600101905060008167ffffffffffffffff81111561150557611505611a30565b6040519080825280601f01601f19166020018201604052801561152f576020820181803683370190505b5090508181016020015b600019016f181899199a1a9b1b9c1cb0b131b232b360811b600a86061a8153600a850494508461153957509392505050565b6115758383611774565b611582600084848461159e565b6106365760405162461bcd60e51b81526004016105959061205f565b60006001600160a01b0384163b1561169457604051630a85bd0160e11b81526001600160a01b0385169063150b7a02906115e29033908990889088906004016120b1565b6020604051808303816000875af192505050801561161d575060408051601f3d908101601f1916820190925261161a918101906120ee565b60015b61167a573d80801561164b576040519150601f19603f3d011682016040523d82523d6000602084013e611650565b606091505b5080516000036116725760405162461bcd60e51b81526004016105959061205f565b805181602001fd5b6001600160e01b031916630a85bd0160e11b149050610907565b506001610907565b60008072184f03e93ff9f4daa797ed6e38ed64bf6a1f0160401b83106116db5772184f03e93ff9f4daa797ed6e38ed64bf6a1f0160401b830492506040015b6d04ee2d6d415b85acef81000000008310611707576d04ee2d6d415b85acef8100000000830492506020015b662386f26fc10000831061172557662386f26fc10000830492506010015b6305f5e100831061173d576305f5e100830492506008015b612710831061175157612710830492506004015b60648310611763576064830492506002015b600a83106104625760010192915050565b6001600160a01b0382166117ca5760405162461bcd60e51b815260206004820181905260248201527f4552433732313a206d696e7420746f20746865207a65726f20616464726573736044820152606401610595565b6000818152600260205260409020546001600160a01b03161561182f5760405162461bcd60e51b815260206004820152601c60248201527f4552433732313a20746f6b656e20616c7265616479206d696e746564000000006044820152606401610595565b6000818152600260205260409020546001600160a01b0316156118945760405162461bcd60e51b815260206004820152601c60248201527f4552433732313a20746f6b656e20616c7265616479206d696e746564000000006044820152606401610595565b6001600160a01b038216600081815260036020908152604080832080546001019055848352600290915280822080546001600160a01b0319168417905551839291907fddf252ad1be2c89b69c2b068fc378daa952ba7f163c4a11628f55a4df523b3ef908290a45050565b6001600160e01b03198116811461107f57600080fd5b60006020828403121561192757600080fd5b8135610fd4816118ff565b60005b8381101561194d578181015183820152602001611935565b50506000910152565b6000815180845261196e816020860160208601611932565b601f01601f19169290920160200192915050565b602081526000610fd46020830184611956565b6000602082840312156119a757600080fd5b5035919050565b80356001600160a01b03811681146119c557600080fd5b919050565b600080604083850312156119dd57600080fd5b6119e6836119ae565b946020939093013593505050565b600080600060608486031215611a0957600080fd5b611a12846119ae565b9250611a20602085016119ae565b9150604084013590509250925092565b634e487b7160e01b600052604160045260246000fd5b600067ffffffffffffffff80841115611a6157611a61611a30565b604051601f8501601f19908116603f01168101908282118183101715611a8957611a89611a30565b81604052809350858152868686011115611aa257600080fd5b858560208301376000602087830101525050509392505050565b600082601f830112611acd57600080fd5b610fd483833560208501611a46565b60008060008060808587031215611af257600080fd5b611afb856119ae565b9350602085013567ffffffffffffffff80821115611b1857600080fd5b611b2488838901611abc565b94506040870135915080821115611b3a57600080fd5b611b4688838901611abc565b93506060870135915080821115611b5c57600080fd5b50611b6987828801611abc565b91505092959194509250565b600060208284031215611b8757600080fd5b610fd4826119ae565b60006020808301818452808551808352604092508286019150828160051b87010184880160005b83811015611c2e57603f19898403018552815160808151855288820151818a870152611be582870182611956565b9150508782015185820389870152611bfd8282611956565b91505060608083015192508582038187015250611c1a8183611956565b968901969450505090860190600101611bb7565b509098975050505050505050565b60008060408385031215611c4f57600080fd5b50508035926020909101359150565b60008060408385031215611c7157600080fd5b611c7a836119ae565b915060208301358015158114611c8f57600080fd5b809150509250929050565b60008060008060808587031215611cb057600080fd5b611cb9856119ae565b9350611cc7602086016119ae565b925060408501359150606085013567ffffffffffffffff811115611cea57600080fd5b8501601f81018713611cfb57600080fd5b611b6987823560208401611a46565b60008060008060808587031215611d2057600080fd5b843567ffffffffffffffff80821115611d3857600080fd5b611d4488838901611abc565b95506020870135915080821115611d5a57600080fd5b611d6688838901611abc565b94506040870135915080821115611d7c57600080fd5b50611d8987828801611abc565b925050611d98606086016119ae565b905092959194509250565b60008060408385031215611db657600080fd5b611dbf836119ae565b9150611dcd602084016119ae565b90509250929050565b600181811c90821680611dea57607f821691505b602082108103610d5757634e487b7160e01b600052602260045260246000fd5b6020808252602d908201527f4552433732313a2063616c6c6572206973206e6f7420746f6b656e206f776e6560408201526c1c881bdc88185c1c1c9bdd9959609a1b606082015260800190565b602080825260149082015273151bdad95b88191bd95cc81b9bdd08195e1a5cdd60621b604082015260600190565b634e487b7160e01b600052601160045260246000fd5b8181038181111561046257610462611e85565b601f82111561063657600081815260208120601f850160051c81016020861015611ed55750805b601f850160051c820191505b81811015611ef457828155600101611ee1565b505050505050565b815167ffffffffffffffff811115611f1657611f16611a30565b611f2a81611f248454611dd6565b84611eae565b602080601f831160018114611f5f5760008415611f475750858301515b600019600386901b1c1916600185901b178555611ef4565b600085815260208120601f198616915b82811015611f8e57888601518255948401946001909101908401611f6f565b5085821015611fac5787850151600019600388901b60f8161c191681555b5050505050600190811b01905550565b634e487b7160e01b600052603260045260246000fd5b600060018201611fe457611fe4611e85565b5060010190565b60008351611ffd818460208801611932565b835190830190612011818360208801611932565b01949350505050565b60208082526025908201527f4552433732313a207472616e736665722066726f6d20696e636f72726563742060408201526437bbb732b960d91b606082015260800190565b60208082526032908201527f4552433732313a207472616e7366657220746f206e6f6e20455243373231526560408201527131b2b4bb32b91034b6b83632b6b2b73a32b960711b606082015260800190565b6001600160a01b03858116825284166020820152604081018390526080606082018190526000906120e490830184611956565b9695505050505050565b60006020828403121561210057600080fd5b8151610fd4816118ff56fea264697066735822122018041f5e4bf2e6f4cc0eb6b562f6a337f19fee1364f4e82ff2d4fe0a6c236acb64736f6c63430008110033",
  "devdoc": {
    "kind": "dev",
    "methods": {
      "approve(address,uint256)": {
        "details": "See {IERC721-approve}."
      },
      "balanceOf(address)": {
        "details": "See {IERC721-balanceOf}."
      },
      "getApproved(uint256)": {
        "details": "See {IERC721-getApproved}."
      },
      "isApprovedForAll(address,address)": {
        "details": "See {IERC721-isApprovedForAll}."
      },
      "name()": {
        "details": "See {IERC721Metadata-name}."
      },
      "owner()": {
        "details": "Returns the address of the current owner."
      },
      "ownerOf(uint256)": {
        "details": "See {IERC721-ownerOf}."
      },
      "renounceOwnership()": {
        "details": "Leaves the contract without owner. It will not be possible to call `onlyOwner` functions. Can only be called by the current owner. NOTE: Renouncing ownership will leave the contract without an owner, thereby disabling any functionality that is only available to the owner."
      },
      "safeTransferFrom(address,address,uint256)": {
        "details": "See {IERC721-safeTransferFrom}."
      },
      "safeTransferFrom(address,address,uint256,bytes)": {
        "details": "See {IERC721-safeTransferFrom}."
      },
      "setApprovalForAll(address,bool)": {
        "details": "See {IERC721-setApprovalForAll}."
      },
      "supportsInterface(bytes4)": {
        "details": "See {IERC165-supportsInterface}."
      },
      "symbol()": {
        "details": "See {IERC721Metadata-symbol}."
      },
      "tokenURI(uint256)": {
        "details": "See {IERC721Metadata-tokenURI}."
      },
      "transferFrom(address,address,uint256)": {
        "details": "See {IERC721-transferFrom}."
      },
      "transferOwnership(address)": {
        "details": "Transfers ownership of the contract to a new account (`newOwner`). Can only be called by the current owner."
      }
    },
    "version": 1
  },
  "userdoc": {
    "kind": "user",
    "methods": {},
    "version": 1
  },
  "storageLayout": {
    "storage": [
      {
        "astId": 138,
        "contract": "contracts/YourContract.sol:YourContract",
        "label": "_name",
        "offset": 0,
        "slot": "0",
        "type": "t_string_storage"
      },
      {
        "astId": 140,
        "contract": "contracts/YourContract.sol:YourContract",
        "label": "_symbol",
        "offset": 0,
        "slot": "1",
        "type": "t_string_storage"
      },
      {
        "astId": 144,
        "contract": "contracts/YourContract.sol:YourContract",
        "label": "_owners",
        "offset": 0,
        "slot": "2",
        "type": "t_mapping(t_uint256,t_address)"
      },
      {
        "astId": 148,
        "contract": "contracts/YourContract.sol:YourContract",
        "label": "_balances",
        "offset": 0,
        "slot": "3",
        "type": "t_mapping(t_address,t_uint256)"
      },
      {
        "astId": 152,
        "contract": "contracts/YourContract.sol:YourContract",
        "label": "_tokenApprovals",
        "offset": 0,
        "slot": "4",
        "type": "t_mapping(t_uint256,t_address)"
      },
      {
        "astId": 158,
        "contract": "contracts/YourContract.sol:YourContract",
        "label": "_operatorApprovals",
        "offset": 0,
        "slot": "5",
        "type": "t_mapping(t_address,t_mapping(t_address,t_bool))"
      },
      {
        "astId": 7,
        "contract": "contracts/YourContract.sol:YourContract",
        "label": "_owner",
        "offset": 0,
        "slot": "6",
        "type": "t_address"
      },
      {
        "astId": 2878,
        "contract": "contracts/YourContract.sol:YourContract",
        "label": "_tokenIdCounter",
        "offset": 0,
        "slot": "7",
        "type": "t_struct(Counter)1558_storage"
      },
      {
        "astId": 2912,
        "contract": "contracts/YourContract.sol:YourContract",
        "label": "_tokenExists",
        "offset": 0,
        "slot": "8",
        "type": "t_mapping(t_uint256,t_bool)"
      },
      {
        "astId": 2916,
        "contract": "contracts/YourContract.sol:YourContract",
        "label": "_tokenPrices",
        "offset": 0,
        "slot": "9",
        "type": "t_mapping(t_uint256,t_uint256)"
      },
      {
        "astId": 2920,
        "contract": "contracts/YourContract.sol:YourContract",
        "label": "_tokenTitles",
        "offset": 0,
        "slot": "10",
        "type": "t_mapping(t_uint256,t_string_storage)"
      },
      {
        "astId": 2924,
        "contract": "contracts/YourContract.sol:YourContract",
        "label": "_tokenDescriptions",
        "offset": 0,
        "slot": "11",
        "type": "t_mapping(t_uint256,t_string_storage)"
      },
      {
        "astId": 2928,
        "contract": "contracts/YourContract.sol:YourContract",
        "label": "_tokenImageURLs",
        "offset": 0,
        "slot": "12",
        "type": "t_mapping(t_uint256,t_string_storage)"
      }
    ],
    "types": {
      "t_address": {
        "encoding": "inplace",
        "label": "address",
        "numberOfBytes": "20"
      },
      "t_bool": {
        "encoding": "inplace",
        "label": "bool",
        "numberOfBytes": "1"
      },
      "t_mapping(t_address,t_bool)": {
        "encoding": "mapping",
        "key": "t_address",
        "label": "mapping(address => bool)",
        "numberOfBytes": "32",
        "value": "t_bool"
      },
      "t_mapping(t_address,t_mapping(t_address,t_bool))": {
        "encoding": "mapping",
        "key": "t_address",
        "label": "mapping(address => mapping(address => bool))",
        "numberOfBytes": "32",
        "value": "t_mapping(t_address,t_bool)"
      },
      "t_mapping(t_address,t_uint256)": {
        "encoding": "mapping",
        "key": "t_address",
        "label": "mapping(address => uint256)",
        "numberOfBytes": "32",
        "value": "t_uint256"
      },
      "t_mapping(t_uint256,t_address)": {
        "encoding": "mapping",
        "key": "t_uint256",
        "label": "mapping(uint256 => address)",
        "numberOfBytes": "32",
        "value": "t_address"
      },
      "t_mapping(t_uint256,t_bool)": {
        "encoding": "mapping",
        "key": "t_uint256",
        "label": "mapping(uint256 => bool)",
        "numberOfBytes": "32",
        "value": "t_bool"
      },
      "t_mapping(t_uint256,t_string_storage)": {
        "encoding": "mapping",
        "key": "t_uint256",
        "label": "mapping(uint256 => string)",
        "numberOfBytes": "32",
        "value": "t_string_storage"
      },
      "t_mapping(t_uint256,t_uint256)": {
        "encoding": "mapping",
        "key": "t_uint256",
        "label": "mapping(uint256 => uint256)",
        "numberOfBytes": "32",
        "value": "t_uint256"
      },
      "t_string_storage": {
        "encoding": "bytes",
        "label": "string",
        "numberOfBytes": "32"
      },
      "t_struct(Counter)1558_storage": {
        "encoding": "inplace",
        "label": "struct Counters.Counter",
        "members": [
          {
            "astId": 1557,
            "contract": "contracts/YourContract.sol:YourContract",
            "label": "_value",
            "offset": 0,
            "slot": "0",
            "type": "t_uint256"
          }
        ],
        "numberOfBytes": "32"
      },
      "t_uint256": {
        "encoding": "inplace",
        "label": "uint256",
        "numberOfBytes": "32"
      }
    }
  }
}